:020000040800F2
:1000000060800020FDF605082D1100080D04000891
:100010003B110008431100084B11000800000000CC
:10002000000000000000000000000000DDE5050801
:10003000531100080000000039E80508258C00086D
:100040004DF705084DF705084DF705084DF705086C
:100050004DF705084DF705084DF70508890200081A
:100060004DF705084DF705084DF705080F05000881
:100070004DF705084DF705084DF705084DF705083C
:100080004DF705084DF705084DF705084DF705082C
:100090004DF705084DF705084DF705084DF705081C
:1000A0004DF705084DF705084DF705084DF705080C
:1000B0004DF705084DF705084DF705084DF70508FC
:1000C0004DF705084DF705084DF705084DF70508EC
:1000D0004DF705084DF705084DF705084DF70508DC
:1000E0004DF705084DF705084DF705084DF70508CC
:1000F0004DF705084DF705084DF705084DF70508BC
:100100004DF705084DF705084DF705084DF70508AB
:100110004DF705084DF705084DF705084DF705089B
:100120004DF705084DF705084DF705084DF705088B
:100130004DF705084DF705084DF705084DF705087B
:100140004DF705084DF705084DF705084DF705086B
:100150004DF705084DF70508031700084DF705088A
:100160004DF705084DF705084DF705084DF705084B
:100170004DF705084DF705084DF70508000000008C
:100180004DF705084DF705084DF705084DF705082B
:100190004DF705084DF705084DF705084DF705081B
:0C01A0004DF705084DF70508FF0C00089E
:1001C00080B582B000AF07233B7101237B7101230F
:1001D000BB710123FB713B1D184603F08DFC00BF72
:1001E0000837BD4680BD80B584B000AF01214FF413
:1001F000807007F01BFD01214FF4804007F096FD51
:100200000223BB6000233B730023FB7307F1080349
:1002100019460C4805F02CFD0121082007F0CEFFFF
:1002200002233B6000233B7108237B710123BB71D8
:100230003B46184604F016FCFFF7C2FF00BF10371C
:10024000BD4680BD0020024080B584B000AF0223CF
:10025000BB6000233B7308237B730023BB7307F150
:100260000803184604F0FEFB07233B7103237B7150
:100270000023BB710023FB713B1D184603F03CFCBF
:1002800000BF1037BD4680BD80B500AF022004F02E
:10029000ADFC0346002B04D000F01EFB022004F04E
:1002A000BFFC00BF80BD00BF80B582B000AF0121A0
:1002B000802007F0BBFC4FF480633B6001233B715F
:1002C0000023BB710123FB7100237B713B46194660
:1002D000114805F0CDFC4FF400633B603B461946E6
:1002E0000D4805F0C5FC4FF480533B603B46194672
:1002F000094805F0BDFC084B4FF480621A83064B99
:100300004FF400621A83044B4FF480521A8300BFEB
:100310000837BD4680BD00BF001C024080B582B0DA
:1003200000AF0121042007F081FC4FF400533B6033
:1003300000233B710023FB7100237B713B46194670
:10034000034805F095FC00BF0837BD4680BD00BFDF
:10035000001C024080B483B000AF0346FB7197F9E4
:100360000730002B0BDBFB7903F01F02074997F9DD
:1003700007305B09012000FA02F241F8232000BF98
:100380000C37BD465DF8047B704700BF00E100E01C
:1003900080B483B000AF03463960FB7197F9073032
:1003A000002B0ADB3B68DAB20C4997F907301201DF
:1003B000D2B20B4483F800230AE03B68DAB2084962
:1003C000FB7903F00F03043B1201D2B20B441A76FF
:1003D00000BF0C37BD465DF8047B704700E100E0CC
:1003E00000ED00E080B483B000AF7860396000BFFA
:1003F0000C37BD465DF8047B704780B500AF0248FE
:100400005FF08CFD00BFFDE7488E060880B400AFAA
:100410001EF0040F0CBFEFF30880EFF3098000F02B
:1004200005B800BFBD465DF8047B704780B58AB053
:1004300000AF78607B681B687B627B685B683B62AF
:100440007B689B68FB617B68DB68BB617B681B69C1
:100450007B617B685B693B617B689B69FB607B6858
:10046000DB69BB6012485FF059FD796A11485FF0A3
:10047000DBFC396A10485FF0D7FCF9690F485FF080
:10048000D3FCB9690E485FF0CFFC79690D485FF085
:10049000CBFC39690C485FF0C7FCF9680B485FF08A
:1004A000C3FCB9680A485FF0BFFC00BFFDE700BFAE
:1004B000588E0608648E0608748E0608848E060818
:1004C000948E0608A48E0608B48E0608C48E06080C
:1004D000D48E060880B582B000AF08237B7100235C
:1004E0003B714FF400533B600123BB7101214FF47A
:1004F000804007F01BFC0D21022007F05FFE3B4609
:10050000184604F0AFFA00BF0837BD4680BD80B57D
:1005100000AF0849084803F0ADFE0346002B06D0A3
:100520000449054803F0FEFE044B01221A7000BF87
:1005300080BD00BF2080001010600240D60C00205B
:1005400080B485B000AF78600B46FB70FF23FB736F
:100550000023BB7322E0BB7B7A6813441A78FB7BD1
:100560005340FB7300237B7312E097F90F30002B8D
:1005700008DA97F90F305B005BB283F031035BB2AE
:10058000FB7302E0FB7B5B00FB737B7B01337B73C4
:100590007B7B072BE9D9BB7B0133BB73BA7BFB7831
:1005A0009A42D8D3FB7B18461437BD465DF8047BCE
:1005B000704780B584B000AFF860B9607A6006E03B
:1005C0007B685A1E7A60002B01D1002307E0B968CE
:1005D000F86806F033F90346002BF1D001231846E2
:1005E0001037BD4680BDB0B58CB004AFF860B960BF
:1005F0001346FB71FB79BB770023FB770121A648EB
:1006000005F06DFE4FF47A72A449A348FFF7D1FFBD
:100610000346002B00F01581002288219E4805F03A
:100620009EFE4FF47A729E499B48FFF7C2FF034635
:10063000002B00F00881BB7F1946974805F0F4FFB6
:100640004FF47A7297499448FFF7B3FF0346002BA3
:1006500000F0FB800121904805F061FEFB79FD2B45
:1006600006D0FD2B10DCE02B0AD0F62B04D00BE0DB
:10067000092009F043F80BE0052009F03FF807E0F6
:10068000022009F03BF803E00A2009F037F800BF28
:100690000121814805F023FE4FF47A727F497E489C
:1006A000FFF787FF0346002B00F0D180012288214D
:1006B000794805F054FE4FF47A727B497648FFF78B
:1006C00078FF0346002B00F0C4800023FB7723E073
:1006D000FB7F052B03D100216F4805F05EFE4FF430
:1006E0007A7272496C48FFF764FF0346002B05D10C
:1006F0000121694805F051FE0023C8E0FC7F6648EF
:1007000005F0A2FF03461A4604F120033B4403F818
:10071000102CFB7F0133FB77FB7F052BD8D9012100
:100720005D4805F0FCFD01215B4805F036FE07F150
:10073000100302211846FFF703FF03467B77BB7CBB
:100740007A7F9A4204D05A485FF0E8FB00239EE08B
:1007500007F11003033302211846FFF7F1FE0346A9
:100760007B777B7D7A7F9A4204D052485FF0D6FB3C
:1007700000238CE03B7C18467B7C1C46BB7C1D46E2
:10078000FB7C3A7D797D0291019200932B462246B3
:10079000014649485FF048FB3B7C1BB21B021AB282
:1007A0007B7C1BB213431BB27B83FB7C1BB21B0203
:1007B0001AB23B7D1BB213431BB23B837B8B07EE0C
:1007C000903AB8EE677ADFED3D6AC7EE267A9FED84
:1007D0003C7A67EE877A9FED3B7A77EEC77AFB68C3
:1007E000C3ED007A3B8B07EE903AB8EE677ADFED07
:1007F000336AC7EE267A9FED347A67EE877AB1EED8
:10080000087A77EEC77ABB68C3ED007ABB68D3ED90
:10081000007A9FED2E7AF4EEC77AF1EE10FA02DD3F
:10082000BB682B4A1A60BB68D3ED007AF5EEC07A3C
:10083000F1EE10FA03D5BB684FF000021A600123F5
:1008400025E000BF06E000BF04E000BF02E000BFFB
:1008500000E000BF0121104805F061FD01210E48B4
:1008600005F09BFD1B490C4806F03AF80346002BA7
:1008700003D01849084806F066F800BF4FF400316D
:10088000054806F02DF80346002BF7D10023184643
:100890002037BD46B0BD00BF00540040010003003A
:1008A00082000700840007000200030040000300EC
:1008B000E48E0608008F0608188F060800FF7F47A1
:1008C00000002F43000034420000FA420000C842FA
:1008D0000000C8420004001080B400AF054B1B7834
:1008E000DBB20133DAB2034B1A7000BFBD465DF8CC
:1008F000047B7047C00C002080B590B000AF012190
:100900004FF4001007F092F91A4803F0ABF94FF0DA
:1009100000737B60184BBB60184BFB6000233B618E
:1009200006237B610023BB614FF48063FB610023DE
:100930003B6200237B620023BB624FF44033FB62C7
:1009400000233B6301237B630023BB630023FB6322
:100950003B1D1946074803F059FA012210210548AA
:1009600003F04EFC0B20FFF7F5FC00BF4037BD46FF
:1009700080BD00BF1060024010540040D00C002029
:10098000B0B58AB004AFF860B9601346FB71FB796B
:10099000FB750121A74805F0A2FC4FF47A72A64925
:1009A000A448FFF706FE0346002B03D1A3485FF0DF
:1009B000B5FA6BE1002288219E4805F0D0FC4FF487
:1009C0007A729F499B48FFF7F4FD0346002B03D141
:1009D0009C485FF0A3FA59E1FB7D1946954805F064
:1009E00023FE4FF47A7298499248FFF7E2FD0346DE
:1009F000002B03D195485FF091FA47E101218D4822
:100A000005F08DFCFB79FD2B06D0FD2B10DCE02BD7
:100A10000AD0F62B04D00BE0092008F06FFE0BE0A3
:100A2000052008F06BFE07E0022008F067FE03E0F7
:100A30000A2008F063FE00BF85485FF06FFA0021CE
:100A4000844803F072FA0621824803F0C0FA0121BB
:100A5000804803F06AFA0121764805F094FE0121EE
:100A6000744805F09AFC0121724805F038FC4FF4F7
:100A70007A7271496F48FFF79CFD0346002B03D142
:100A80006E485FF04BFA01E101228821694805F0C8
:100A900066FC4FF47A7270496648FFF78AFD034698
:100AA000002B03D16D485FF039FAEFE06C4B002268
:100AB0001A7001215F4805F046FE02E0012008F0AF
:100AC0001DFE674B1B78DBB2002BF7D00021594885
:100AD00005F039FE00215F4803F027FA604B1B78D0
:100AE000DBB2002B05D10121524805F018FC002390
:100AF000ECE001214F4805F012FC5A49554803F03B
:100B000051FB594B1B78DBB21846574B5B78DBB275
:100B10001C46554B9B78DBB21D46534BDB78DBB252
:100B20001A46514B1B79DBB219464F4B5B79DBB24E
:100B30000293019100922B46224601464B485FF0FA
:100B400073F902214848FFF7FBFC0346BB75464B8F
:100B50009B78DBB2BA7D9A4201D00023B6E0022135
:100B60004348FFF7EDFC0346BB753F4B5B79DBB2B7
:100B7000BA7D9A4201D00023A8E03B4B1B78DBB240
:100B80001BB21B021AB2384B5B78DBB21BB21343A9
:100B90001BB2BB82344BDB78DBB21BB21B021AB236
:100BA000314B1B79DBB21BB213431BB27B82BB8A76
:100BB00007EE903AB8EE677ADFED2E6AC7EE267A36
:100BC0009FED2D7A67EE877A9FED2C7A77EEC77AC4
:100BD000FB68C3ED007A7B8A07EE903AB8EE677A3D
:100BE000DFED246AC7EE267A9FED257A67EE877AD5
:100BF000B1EE087A77EEC77ABB68C3ED007ABB68BE
:100C0000D3ED007A9FED1F7AF4EEC77AF1EE10FA79
:100C100002DDBB681C4A1A60BB68D3ED007AF5EEB2
:100C2000C07AF1EE10FA03D5BB684FF000021A60EB
:100C300001234BE00054004001000300408F0608F0
:100C400082000700748F060884000700B48F06082E
:100C5000EC8F06081060024002000300F88F0608BF
:100C6000D60C002020000010D00C00203890060880
:100C7000D30C002000FF7F4700002F4300003442C8
:100C80000000FA420000C8420000C84211485FF06C
:100C900045F90121104805F042FB01210E4805F0FD
:100CA0007CFB0E490C4805F01BFE0346002B03D0CD
:100CB0000A49094805F047FE00BF4FF400310648D5
:100CC00005F00EFE0346002BF7D100231846183717
:100CD000BD46B0BD5C900608005400400004001002
:100CE00080B582B000AF78603960FD2239687868DD
:100CF000FFF746FE034618460837BD4680BD80B55F
:100D000000AF05485FF00AF9272003F043FE1CF00E
:100D10009BFC00BF80BD00BF6890060880B586B010
:100D200000AFF860B9607A6025485FF0F7F84FF0DF
:100D300050433B61BB685B687B6135E0214B1B78AE
:100D40001946214A0B465B000B449B0013440833B1
:100D50001B881A467B6903FB02F2BB681B681344BD
:100D60001A4613465B0013443A69D018BB689A6868
:100D7000BB681B68D31A01331A4613465B00134441
:100D80001A4679685EF02AF8BB689A68BB681B68E7
:100D9000D31A01331A4613465B0013447A6813448E
:100DA0007B607B6901337B61BB68DB687A699A424F
:100DB000C4DDF8681BF0E8FA00BF1837BD4680BDF7
:100DC000849006080B0E00202492060880B584B09B
:100DD00000AF786039600023FB600023BB601548DA
:100DE0005FF09CF807F1080207F10C031146184662
:100DF00002F0C2FDFB68002B0CDDBB68002B09DD97
:100E0000FA683B681A60BA683B685A603B6801221E
:100E10009A7402E03B6800229A743B6819683B6848
:100E20005A683B689B7C04485EF0FEFF00BF1037A9
:100E3000BD4680BD98900608B4900608F0B587B00E
:100E400004AF5A4B1B781946594A0B465B000B44BA
:100E50009B00134408331B881E46544B1B781946CD
:100E6000534A0B465B000B449B0013440A331B8818
:100E70009C464E4B1B7819464D4A0B465B000B4473
:100E80009B00134408331B881C464A4B1A68474B87
:100E90001B781846464903465B0003449B000B44FD
:100EA00008331B881D46414B1B78184640490346B2
:100EB0005B0003449B000B440A331B8805FB03F3D0
:100EC00019460B465B000B440293019200941223D7
:100ED0006246314638481DF091FC344B1B78194668
:100EE000334A0B465B000B449B00134408331B88BA
:100EF00018462E4B1B7819462D4A0B465B000B44B7
:100F00009B0013440A331B8819461BF063FC78606E
:100F10002A4978681BF038F8264B1968234B1B7850
:100F20001846234A03465B0003449B0013440833DE
:100F30001B881C461D4B1B7818461D4A03465B0048
:100F400003449B0013440A331B8804FB03F31A4633
:100F500013465B00134401220092002278681BF0C4
:100F60002DF8012178681BF005F830F0D2FA3860CE
:100F70003B68002B03D112485EF0D0FF12E0012144
:100F8000386830F03FFB0F49386830F042FB0121F0
:100F9000386830F03EFC0121386830F017FB0A4811
:100FA0005EF0BCFF0C37BD46F0BD00BF0B0E00204D
:100FB0002492060800000020D80C00201D0D000817
:100FC000D4900608CD0D0008EC90060880B582B0DC
:100FD00000AF7860052041F0D7FD00BF0837BD465F
:100FE00080BD80B582B000AF7860022200214FF052
:100FF000504001F069F902F02DFB012001F064F886
:1010000034F092FCFFF71AFF0EF08CFE04485EF0FD
:1010100085FF3BF061FC052008F070FB00BFF8E79E
:101020000891060890B591B000AF78601D485EF059
:1010300075FF07F118032422002118465FF03EF8DF
:10104000194BBB614FF42043FB6228233B6307F13C
:1010500018031A460021154807F0A0FF144B07F1AA
:1010600008040FCB84E80F0007F1080300220121D8
:10107000104808F0A8FBF863FB6B002B03D10E4867
:101080005EF04CFF06E00521F86B08F05AFC0B48B7
:101090005EF044FF0A485EF041FF322008F02EFB6C
:1010A000FBE700BF1C91060830910608E30F00081B
:1010B00080910608CD0F00083C9106085091060863
:1010C0006491060880B500AF00F006F9FFF7ECF870
:1010D00001F098FD05212820FFF75AF92820FFF795
:1010E00039F9FFF780F800F0D3FA0B485EF016FFED
:1010F0000A4B1B6819460A485EF096FE07F0C9FDC8
:1011000000220021074807F049FF07F033FE064898
:101110005EF004FF00BFFDE7909106080400002088
:10112000B091060825100008C891060880B400AFE9
:1011300000BFBD465DF8047B704780B400AF00BFC0
:10114000FDE780B400AF00BFFDE780B400AF00BF93
:10115000FDE780B400AF00BFBD465DF8047B70477B
:1011600080B582B000AF786039605FF049F803461F
:1011700016221A604FF0FF3318460837BD4680BD6F
:1011800080B400AF01231846BD465DF8047B70476C
:1011900080B483B000AF786000BFFDE780B483B057
:1011A00000AF78604FF0FF3318460C37BD465DF84E
:1011B000047B704780B483B000AF786039603B68CF
:1011C0004FF400525A60002318460C37BD465DF8B4
:1011D000047B704780B483B000AF78600123184669
:1011E0000C37BD465DF8047B704780B485B000AF16
:1011F000F860B9607A60002318461437BD465DF880
:10120000047B704780B485B000AFF860B9607A6045
:10121000002318461437BD465DF8047B704780B440
:1012200085B000AF78600B4B1B68002B02D1094BD7
:10123000094A1A60074B1B68FB60064B1A687B68FB
:101240001344044A1360FB6818461437BD465DF822
:10125000047B7047040D00206080002080B500AF43
:101260001A4BD3F88830194A43F47003C2F8883017
:10127000164BD3F88830154A43F47003C2F888300F
:10128000134B1B68124A43F001031360104B0022FA
:101290009A600F4B1B680E4A23F0847323F480334B
:1012A00013600B4B0B4A5A60094B1B68084A23F426
:1012B00080231360064B0022DA6000F08FF8034BA6
:1012C0004FF000629A6000BF80BD00BF00ED00E0FB
:1012D000003802401030002480B487B000AF0023F3
:1012E0003B6100237B610223FB600023BB60022380
:1012F0007B60354B9B6803F00C033B613B69082B1B
:1013000011D03B69082B44D83B69002B03D03B69C3
:10131000042B04D03DE02D4B2D4A1A603DE02B4BB1
:101320002C4A1A6039E0284B5B689B0D03F00103DF
:10133000BB60254B5B6803F03F037B60BB68002B01
:101340000CD0244A7B68B2FBF3F31F4A526892091F
:10135000C2F3080202FB03F37B610BE01C4A7B68CB
:10136000B2FBF3F3184A52689209C2F3080202FB77
:1013700003F37B61144B5B681B0C03F00303013325
:101380005B00FB607A69FB68B2FBF3F30F4A136002
:1013900003E00E4B0E4A1A6000BF0B4B9B681B0903
:1013A00003F00F030C4AD35CDBB23B61074B1A68B6
:1013B0003B6922FA03F3054A136000BF1C37BD46A0
:1013C0005DF8047B704700BF003802400400002035
:1013D0000024F40040787D01E091060880B483B0D9
:1013E00000AF00237B6000233B60434B1B68424AF5
:1013F00043F480331360404B1B6803F400333B60BD
:101400007B6801337B603B68002B03D17B68B3F5BD
:10141000A04FF0D1384B1B6803F40033002B02D0EF
:1014200001233B6001E000233B603B68012B5CD162
:10143000314B1B6C304A43F0805313642F4B1B68B5
:101440002E4A43F4404313602B4B2B4A9B68936016
:10145000294B9B68284A43F400439360264B9B68C2
:10146000254A43F4A0539360234B254A5A60224BEC
:101470001B68214A43F08073136000BF1E4B1B683A
:1014800003F00073002BF9D01C4B1B681B4A43F47C
:101490008033136000BF194B5B6803F48033002B6B
:1014A000F9D0164B1B68154A43F40033136000BF94
:1014B000124B5B6803F40033002BF9D0114B40F260
:1014C00005721A600C4B9B680B4A23F00303936070
:1014D000094B9B68084A43F00203936000BF064B28
:1014E0009B6803F00C03082BF9D100BF0C37BD46F5
:1014F0005DF8047B704700BF003802400070004078
:10150000195A4007003C024080B582B000AF01216B
:10151000042006F08BFB02233B710023BB710123E7
:10152000FB7100237B7140233B603B4619460C480E
:1015300004F09EFB80233B603B461946084804F0BC
:1015400097FB08220621064804F002FD0822072125
:10155000034804F0FDFC00BF0837BD4680BD00BF56
:101560000008024080B588B000AF786001210120FA
:1015700006F05CFB0121102006F0D8FB07220921B0
:10158000194804F0E5FC07220A21174804F0E0FCA2
:101590004FF4C063BB6102233B7702237B770023B8
:1015A000BB770123FB7707F1180319460E4804F0B7
:1015B0005FFB7B68BB600023BB810023FB810023B2
:1015C0003B820023BB820C237B8207F10803194670
:1015D000064806F0FBFE0121044807F00FF800BFA3
:1015E0002037BD4680BD00BF000002400010014012
:1015F00080B592B000AF78600B467B8001214FF43C
:10160000800006F013FB1F4802F02CFB00BF1D48B2
:1016100002F062FD0346002BF9D14FF00063FB603E
:10162000194B3B617B687B614023BB617B88FB611D
:1016300000233B624FF480637B620023BB62002384
:10164000FB6200233B634FF400337B630023BB63E7
:101650000123FB6300233B6400237B6407F10C033D
:101660001946084802F0D2FB01228021074807F002
:10167000C7F90121034802F058FC00BF4837BD46B6
:1016800080BD00BFB864024004100140001001405A
:1016900080B584B000AF0121202006F047FBFFF7A2
:1016A00033FF4FF4E1333B600023BB800023FB801A
:1016B00000233B810C237B810023BB813B461946E1
:1016C000054806F083FE0121034806F097FF00BF9E
:1016D0001037BD4680BD00BF0014014080B582B008
:1016E00000AF46233B7101237B710123BB710123B2
:1016F000FB713B1D184602F0FFF900BF0837BD46DD
:1017000080BD80B500AF0A490A4802F0B3FD034628
:10171000002B0AD00649074802F004FE064B0022BF
:101720001A700021034802F000FC00BF80BD00BF1A
:1017300000800028B86402400A0E002080B582B004
:1017400000AF78607B68DBB21946084806F0D5FF29
:1017500000BF8021054807F0BFF90346002BF8D0F1
:101760007B6818460837BD4680BD00BF00140140A5
:1017700080B586B000AFF860B9607A6000237B6105
:1017800009E07B69BA6813441B781846FFF7D6FF57
:101790007B6901337B617A697B689A42F1DB7B6804
:1017A00018461837BD4680BD80B582B000AF78605E
:1017B00039607B68DBB21946074806F09EFF00BF20
:1017C0008021054807F088F90346002BF8D07B6894
:1017D00018460837BD4680BD0014014080B582B070
:1017E00000AF7860396000BF134B1B78DBB2002B71
:1017F000FAD1124B1B889BB25A1C91B20F4A11802E
:101800001A467B68D9B20E4B99547B680A2B04D0D8
:101810000A4B1B889BB2FF2B09D9074B01221A7078
:10182000064B1B889BB219460548FFF7E1FE7B6813
:1018300018460837BD4680BD0A0E0020080E00205D
:10184000080D002080B483B000AF786002E07B68B0
:10185000013B7B607B68002BF9D100BF00BF0C37D8
:10186000BD465DF8047B704780B586B000AF4FF48D
:1018700000537B6000233B7202237B720023FB72C8
:101880003B1D1946124804F0F3F90D21032006F020
:1018900095FC4FF400533B6100233B7508237B7597
:1018A0000123BB7507F11003184603F0DBF828236A
:1018B0003B7305237B730023BB730123FB7307F189
:1018C0000C03184602F018F900BF1837BD4680BD5A
:1018D000000C024080B586B000AF4FF400537B602F
:1018E00000233B7202237B720023FB723B1D1946CF
:1018F000124804F0BDF90D21032006F05FFC4FF4FF
:1019000000533B6100233B7508237B750023BB75A7
:1019100007F11003184603F0A5F828233B730123B1
:101920007B730123BB730023FB7307F10C03184681
:1019300002F0E2F800BF1837BD4680BD000C02403F
:1019400080B582B000AF01214FF4800006F0CEF9DF
:1019500001214FF4C47006F069F901214FF4804071
:1019600006F0E4F904220421204804F0F1FA0422EC
:1019700005211E4804F0ECFA10233B6002233B7162
:1019800002237B710123BB710023FB713B46194687
:10199000164804F06DF920233B603B461946134876
:1019A00004F066F94FF480733B6001233B7102231E
:1019B0007B710023BB710223FB713B4619460C4827
:1019C00004F056F94FF400533B6001233B710223AE
:1019D0007B710023BB710223FB713B46194605480E
:1019E00004F046F900BF0837BD4680BD001C024028
:1019F00000200240000C024080B582B000AF4FF4DE
:101A000000533B6001233B7102237B710023BB71B8
:101A10000223FB713B461946124804F029F94FF4A2
:101A20008071114804F04CFA1048FFF70BFF4FF497
:101A300080710D4804F035FA0C48FFF703FF4FF4AE
:101A400000533B6000233B7102237B710023FB7139
:101A50003B461946034804F00BF900BF0837BD4662
:101A600080BD00BF000C024000200240FFFF0F00BD
:101A700080B584B000AF0023BB804BF6FF73FB80C2
:101A80000A233B814FF480637B814FF48043BB8109
:101A9000094B3B603B461946084804F0DDFA01213A
:101AA000064804F0BAFB0121044804F076FC00BFAC
:101AB0001037BD4680BD00BFA08601000058004021
:101AC00080B500AFFFF73CFFFFF7D2FFFFF794FFB1
:101AD000FFF700FF00BF80BD80B582B000AF0346B6
:101AE0003960FB711346BB80474B4FF420321A60BC
:101AF0000BE0454B1B685A1E43490A60002B04D17A
:101B0000002000F021F903467AE04FF400313F480D
:101B100004F0E6FE0346002BEBD101213B4804F024
:101B2000DEFB394B4FF480521A600BE0364B1B68DA
:101B30005A1E35490A60002B04D1012000F004F937
:101B400003465DE03249314804F078FE0346002B3D
:101B5000ECD0FB79012219462C4804F000FC2A4BFA
:101B60004FF480521A600BE0274B1B685A1E26491F
:101B70000A60002B04D1022000F0E6F803463FE0A3
:101B80002449224804F05AFE0346002BECD02FE0F3
:101B9000BB88012B07D100211C4804F0FEFB01216A
:101BA0001A4804F0BCFB184B4FF420321A600BE0CB
:101BB000154B1B685A1E14490A60002B04D10320E0
:101BC00000F0C2F803461BE01349104804F036FE4B
:101BD0000346002BECD00D4804F036FD03461A46B0
:101BE0003B681A703B6801333B60BB88013BBB809C
:101BF000BB88002BCCD10121044804F0CEFB00238C
:101C000018460837BD4680BD080000200058004037
:101C100001000300020003004000030080B582B011
:101C200000AF03463960FB711346BB71414B4FF463
:101C300020321A600BE03F4B1B685A1E3D490A6078
:101C4000002B04D1042000F07FF803466DE04FF430
:101C50000031394804F044FE0346002BEBD101214A
:101C6000354804F03CFB334B4FF480521A600BE0D4
:101C7000304B1B685A1E2F490A60002B04D10520E7
:101C800000F062F8034650E02C492B4804F0D6FDE2
:101C90000346002BECD0FB7900221946264804F0BD
:101CA0005EFB244B4FF480521A600BE0214B1B6803
:101CB0005A1E20490A60002B04D1062000F044F887
:101CC000034632E01E491C4804F0B8FD0346002BD1
:101CD000ECD020E03B681B781946174804F0A4FCC0
:101CE0003B6801333B60134B4FF480521A600BE0AA
:101CF000104B1B685A1E0F490A60002B04D10720A5
:101D000000F022F8034610E00E490B4804F096FD5F
:101D10000346002BECD0BB795A1EBA71002BD9D1E7
:101D20000121054804F0FBFA002318460837BD4698
:101D300080BD00BF080000200058004001000300E3
:101D4000820007008400070080B582B000AF034620
:101D5000FB71FB79194609485EF066F801210848D5
:101D600004F0DDFA064804F03DF9FFF781FEFFF7C5
:101D700043FEFF2318460837BD4680BDF091060894
:101D80000058004080B582B000AF012140F2FF1042
:101D900005F04CFF04233B6002237B7102233B715F
:101DA0000023BB710023FB713B461946BD4803F07D
:101DB0005FFF0E220221BB4804F0CAF808233B60F3
:101DC0003B461946B74803F053FF0E220321B5489E
:101DD00004F0BEF84FF480733B603B461946B148AF
:101DE00003F046FF0E220821AE4804F0B1F80123AB
:101DF0003B603B461946AC4803F03AFF09220021FC
:101E0000A94804F0A5F84FF400633B603B4619462F
:101E1000A64803F02DFF0E220B21A44804F098F8E9
:101E20004FF480533B603B461946A04803F020FF27
:101E30000E220C219D4804F08BF802233B603B46A8
:101E40001946994803F014FF09220121964804F02D
:101E50007FF840233B603B461946954803F008FF56
:101E60000E220621924804F073F820233B603B4683
:101E70001946904803F0FCFE0E2205218D4804F01F
:101E800067F840233B603B4619468A4803F0F0FE62
:101E90000E220621874804F05BF84FF400533B60A4
:101EA0003B4619467F4803F0E3FE0E220D217D4894
:101EB00004F04EF84FF480633B603B4619467C4883
:101EC00003F0D6FE09220A21794804F041F84FF4C4
:101ED00000433B603B461946724803F0C9FE0E22A0
:101EE0000F21704804F034F801233B603B4619464B
:101EF000714803F0BDFE0E2200216F4804F028F85F
:101F000080233B603B4619466C4803F0B1FE0E222D
:101F100007216A4804F01CF804233B603B4619463D
:101F2000654803F0A5FE0E220221634804F010F874
:101F300010233B603B4619465E4803F099FE0E2293
:101F400004215C4804F004F84FF480533B603B46A6
:101F50001946574803F08CFE0E220C21544803F01A
:101F6000F7FF40233B603B461946554803F080FE8F
:101F70000E220621524803F0EBFF4FF400633B6052
:101F80003B4619464A4803F073FE0E220B2148488F
:101F900003F0DEFF10233B603B461946464803F042
:101FA00067FE0E220421444803F0D2FF08233B6061
:101FB0003B4619463D4803F05BFE0E2203213B4899
:101FC00003F0C6FF4FF480733B603B46194636482A
:101FD00003F04EFE0E220821334803F0B9FF4FF400
:101FE00000733B603B4619462F4803F041FE0E222A
:101FF00009212D4803F0ACFF80233B603B46194686
:102000002B4803F035FE0E220721294803F0A0FFDC
:102010004FF480633B603B461946274803F028FE97
:102020000E220A21244803F093FF4FF400733B6013
:102030003B461946204803F01BFE0E2209211E488C
:1020400003F086FF4FF480633B603B4619461D4812
:1020500003F00EFE0E220A211A4803F079FF102326
:102060003B6002237B7101233B710023BB71012381
:10207000FB713B461946124803F0FAFD80233B6092
:102080003B4619460E4803F0F3FD10210C4803F0BF
:1020900008FF80210A4803F004FF00BF0837BD464F
:1020A00080BD00BF001C024000040240000002404E
:1020B00000180240001002400020024000080240C8
:1020C000000C02400014024080B582B000AF78607E
:1020D0007B68002B04D08021054803F0E2FE03E07A
:1020E0008021034803F0ECFE00BF0837BD4680BDE9
:1020F000000C024080B592B000AF786039606D4B43
:102100001B7819466C4A0B465B000B449B0013443A
:102110001B781846674B1B781946674A0B465B00CD
:102120000B449B00134402331B780344BB60614B98
:102130001B781946604A0B465B000B449B00134416
:1021400002331B7818465B4B1B7819465A4A0B46DC
:102150005B000B449B0013441B78C218554B1B7843
:102160001846554903465B0003449B000B44083363
:102170001B881344013BFB604E4B1B7819464E4AAB
:102180000B465B000B449B00134401331B7818463D
:10219000484B1B781946484A0B465B000B449B0092
:1021A000134403331B7803443B61424B1B781946AD
:1021B000414A0B465B000B449B00134403331B78DE
:1021C00018463C4B1B7819463B4A0B465B000B44B8
:1021D0009B00134401331B78C218364B1B781846FA
:1021E000354903465B0003449B000B440A331B88BC
:1021F0001344013B7B613B68BB61FF23FB61FF2311
:102200003B62FF237B62FF23BB62FF23FB624FF431
:1022100080633B6307237B63264B1B781946264A62
:102220000B465B000B449B00134408331B88194684
:10223000224A3B6813441B7801FB03F30333FB631F
:102240001C4B1B7819461C4A0B465B000B449B0039
:10225000134408331B881946184A3B6813441B78FB
:1022600001FB03F33B64134B1B781946124A0B46E0
:102270005B000B449B0013440A331B887B647B6820
:10228000BB6307F1080319460D4804F02FFD012038
:1022900004F01CFD01210A4804F0FDFD002109485D
:1022A00004F0F9FD012004F011FD00BF4837BD46E0
:1022B00080BD00BF0B0E002024920608489206083D
:1022C000846801400469014080B594B000AFF860B3
:1022D000B9607A60BB68002B2DD17B68022B0BD0D4
:1022E0007B68032B08D07B68042B05D07B68052B0B
:1022F00002D07B68072B0CD1AE4B1B781946AE4A37
:102300000B465B000B449B00134406331B78BB60F9
:1023100011E07B68002B02D07B68012B0BD1A54B11
:102320001B781946A44A0B465B000B449B001344E0
:1023300007331B78BB6001214FF0806005F0F6FC8D
:1023400001214FF4000005F071FCFFF71BFD69222D
:10235000BB6892FBF3F3FB64FA6C07214FF4D27075
:1023600005F0B2F94FF4803005F032FC012005F0A1
:10237000C5F900BF3D2005F07DFE0346002BF9D0D6
:1023800000233B6100237B610023BB610023FB61D1
:1023900000233B6400237B640023BB64854B1B78D4
:1023A0001946854A0B465B000B449B0013440233DD
:1023B0001B78013B3B627F4B1B7819467E4A0B46DC
:1023C0005B000B449B00134403331B78013B7B628F
:1023D000784B1B781946784A0B465B000B449B00F0
:1023E000134402331B781846724B1B781946724A05
:1023F0000B465B000B449B0013441B780344013BDA
:10240000BB626C4B1B7819466B4A0B465B000B4456
:102410009B00134403331B781846664B1B78194600
:10242000654A0B465B000B449B00134401331B7849
:102430000344013BFB625F4B1B7819465E4A0B4627
:102440005B000B449B00134402331B781846594B26
:102450001B781946584A0B465B000B449B001344FB
:102460001B78C218534B1B781846534903465B0030
:1024700003449B000B4408331B881344013B3B631C
:102480004C4B1B7819464C4A0B465B000B449B0097
:10249000134403331B781846464B1B781946464AAB
:1024A0000B465B000B449B00134401331B78C2189E
:1024B000404B1B781846404903465B0003449B0091
:1024C0000B440A331B881344013B7B63394B1B7855
:1024D0001946394A0B465B000B449B0013440233F8
:1024E0001B781846334B1B781946334A0B465B0062
:1024F0000B449B0013441B78C2182E4B1B781846C4
:102500002D4903465B0003449B000B4408331B88A2
:102510001A44284B1B781846274903465B0003449E
:102520009B000B4404331B781344013BBB63214BDA
:102530001B781946204A0B465B000B449B00134452
:1025400003331B7818461B4B1B7819461A4A0B4657
:102550005B000B449B00134401331B78C218154BDE
:102560001B781846144903465B0003449B000B4448
:102570000A331B881A440F4B1B7818460E49034632
:102580005B0003449B000B4405331B781344013B61
:10259000FB6307F11003184604F03EFA012004F033
:1025A0000AFB7968F868FFF7A5FD00BF5037BD4604
:1025B00080BD00BF0B0E00202492060880B594B0A9
:1025C00000AFF860B9607A603D4B1B7819463D4A10
:1025D0000B465B000B449B0013441B7801333B61AB
:1025E000374B1B781946374A0B465B000B449B0060
:1025F00013441B781A46BB6813447B61304B1B782D
:102600001946304A0B465B000B449B0013440133D0
:102610001B780133BB612A4B1B781946294A0B46AC
:102620005B000B449B00134401331B781A467B6804
:102630001344FB6102233B62FF237B620023BB62E6
:102640000023FB6200233B6300237B634FF4806322
:10265000BB630523FB6340F243637B644FF4C863B1
:10266000BB647B68FB64FB683B6407F1100319469D
:10267000154804F03BFB03233B62FB6803F53B2357
:1026800003F500633B644FF4C063BB630723FB6344
:1026900007F1100319460D4804F028FB012004F04F
:1026A00015FB0121084804F0F6FB012004F00EFBA5
:1026B000012004F09DFA00BF5037BD4680BD00BF29
:1026C0000B0E002024920608846801400469014032
:1026D00080B485B000AF78600023FB607B68094A56
:1026E00002FB03F3FB6002E0FB68013BFB60FB685D
:1026F000002BF9D100BF00BF1437BD465DF8047B45
:10270000704700BFA086010080B582B000AF0121F4
:10271000FC2005F08BFA02233B7102237B7100231E
:10272000BB710023FB7101233B603B461946CD483A
:1027300003F09EFA0C220021CA4803F009FC022390
:102740003B603B461946C74803F092FA0C22012130
:10275000C44803F0FDFB04233B603B461946C148D7
:1027600003F086FA0C220221BE4803F0F1FB082395
:102770003B603B461946BB4803F07AFA0C22032122
:10278000B84803F0E5FB10233B603B461946B548CB
:1027900003F06EFA0C220421B24803F0D9FB202387
:1027A0003B603B461946AF4803F062FA0C22052114
:1027B000AC4803F0CDFB4FF480533B603B461946D9
:1027C000A84803F055FA0C220C21A64803F0C0FBE0
:1027D0004FF400533B603B461946A24803F048FAC9
:1027E0000C220D219F4803F0B3FB4FF480433B6064
:1027F0003B4619469B4803F03BFA0C220E219948B0
:1028000003F0A6FB4FF400433B603B461946954856
:1028100003F02EFA0C220F21924803F099FB0123BA
:102820003B603B461946904803F022FA0C220021F7
:102830008D4803F08DFB02233B603B4619468A48D6
:1028400003F016FA0C220121874803F081FB0423D0
:102850003B603B461946844803F00AFA0C220221E9
:10286000814803F075FB10233B603B4619467E48C8
:1028700003F0FEF90C2204217B4803F069FB2023BE
:102880003B603B461946784803F0F2F90C220521DB
:10289000754803F05DFB4FF480433B603B461946AF
:1028A000724803F0E5F90C220E21704803F050FB4A
:1028B0004FF400433B603B4619466C4803F0D8F99F
:1028C0000C220F21694803F043FB01233B603B4688
:1028D0001946664803F0CCF90C220021634803F046
:1028E00037FB02233B603B461946604803F0C0F9C2
:1028F0000C2201215D4803F02BFB80233B603B460B
:1029000019465B4803F0B4F90C220721584803F03C
:102910001FFB4FF480733B603B461946544803F05D
:10292000A7F90C220821524803F012FB4FF4007360
:102930003B603B4619464E4803F09AF90C220921A8
:102940004B4803F005FB4FF480633B603B46194660
:10295000474803F08DF90C220A21454803F0F8FAA4
:102960004FF400633B603B461946414803F080F951
:102970000C220B213E4803F0EBFA4FF480533B60EE
:102980003B4619463A4803F073F90C220C213848AB
:1029900003F0DEFA4FF400533B603B4619463448DF
:1029A00003F066F90C220D21314803F0D1FA4FF4FF
:1029B00080433B603B4619462D4803F059F90C22F1
:1029C0000E212B4803F0C4FA4FF400433B603B4612
:1029D0001946274803F04CF90C220F21244803F034
:1029E000B7FA4FF480733B603B4619461F4803F02B
:1029F0003FF90C2208211D4803F0AAFA4FF4007396
:102A00003B603B461946194803F032F90C22092174
:102A1000164803F09DFA4FF480633B603B4619462D
:102A2000124803F025F90C220A21104803F090FA0D
:102A300040233B603B4619460E4803F019F90C222F
:102A400006210C4803F084FA01233B603B461946FB
:102A5000094803F00DF90C220021074803F078FA29
:102A60000CE000BF0014024000180240000C0240BD
:102A700000100240001C0240000802404FF40063B6
:102A80003B603B461946254803F0F2F80C220B2127
:102A9000224803F05DFA4FF400433B603B46194681
:102AA0001F4803F0E5F80C220F211D4803F050FAEF
:102AB0004FF480733B603B461946194803F0D8F841
:102AC0000C220821164803F043FA80233B603B4662
:102AD0001946144803F0CCF80C220721114803F0E2
:102AE00037FA02233B603B4619460F4803F0C0F813
:102AF0000C2201210C4803F02BFA01233B603B46DA
:102B00001946094803F0B4F80C220021064803F0E6
:102B10001FFA00BF0837BD4680BD00BF0014024049
:102B200000180240001C02400010024080B586B030
:102B300000AF00237B6101237B600823BB6000237F
:102B4000FB6000233B6100BF2021012002F0C8FE92
:102B50000346002BF8D13B1D184602F0C8FD0A20A1
:102B6000FFF7B6FD02237B600823BB600023FB60F8
:102B700000233B6100BF2021012002F0B1FE03468B
:102B8000002BF8D13B1D184602F0B1FD03237B60FA
:102B90000823BB600223FB6000233B6100BF2021B0
:102BA000012002F09DFE0346002BF8D13B1D184684
:102BB00002F09DFD40F222237B6104237B60082309
:102BC000BB600123FB607B693B6100BF20210120CA
:102BD00002F086FE0346002BF8D13B1D184602F09A
:102BE00086FD40F2AB2002F0C1FD00BF2021012094
:102BF00002F076FE0346002BF8D100BF00BF183765
:102C0000BD4680BD80B592B000AFFFF77DFD0121CC
:102C1000012005F04BF802233B6007237B6004236F
:102C2000BB600723FB6002233B6102237B6102231D
:102C3000BB610123FB6101233B6208237B621023FC
:102C4000BB624023FB624FF480733B6300237B63D2
:102C50004FF40063BB634FF48053FB6300233B647A
:102C60003B467B6407F11C03184602F011FCFFF79A
:102C70005DFF00BF4837BD4680BD80B586B000AF60
:102C8000F860B9607A60BB687B610021012002F0C6
:102C900095FD00BF2021012002F022FE0346002BFB
:102CA000F8D10DE0FB681A1DFA607A6902F1504212
:102CB0001B6813607B6904337B617B68013B7B602D
:102CC0007B68002BEED100BF00BF1837BD4680BD2A
:102CD00080B586B000AFF860B9607A60BB687B6190
:102CE00000BF2021012002F0FBFD0346002BF8D19C
:102CF0000EE07B6903F150431946FB681A1DFA6028
:102D00000A681A607B6904337B617B68013B7B60E6
:102D10007B68002BEDD100BF00BF1837BD4680BDDA
:102D200080B584B000AF0023FB600023FB7200235A
:102D3000BB7200233B810023FB800023FB6007E084
:102D4000FB6803F1504300221A70FB680133FB60FB
:102D5000FB68B3F1007FF3D30023FB600CE0FB685A
:102D6000DAB2FB6803F150431946FB7A1344DBB235
:102D70000B70FB680133FB60FB68B3F1007FEED39F
:102D80000023FB6014E0FB6803F150431B78BB7227
:102D9000FB68DAB2FB7A1344DBB2BA7A9A4204D007
:102DA0002A485DF0BBF800234CE0FB680133FB6070
:102DB000FB68B3F1007FE6D30023FB6008E0FB680B
:102DC00003F1D0435B0000221A80FB680133FB60F3
:102DD000FB68B3F1807FF2D30023FB600DE0FB685A
:102DE0009AB2FB6803F1D0435B0019463B89134458
:102DF0009BB20B80FB680133FB60FB68B3F1807F03
:102E0000EDD30023FB6015E0FB6803F1D0435B00CA
:102E10001B88FB80FB689AB23B8913449BB2FA88FB
:102E20009A4204D00A485DF079F800230AE0FB6872
:102E30000133FB60FB68B3F1807FE5D305485DF0AB
:102E40006DF8012318461037BD4680BD5092060824
:102E500078920608A492060880B483B000AF786028
:102E600002E07B68013B7B607B68002BF9D100BFEF
:102E700000BF0C37BD465DF8047B704780B584B059
:102E800000AF786039600023FB600023BB60002343
:102E9000FB6051E0FA6813465B0013449B001A463E
:102EA0007B6813445B8803F00103002B20D0FA6891
:102EB00013465B0013449B001A467B681344187842
:102EC000FA6813465B0013449B001A467B68134460
:102ED0009968FA6813465B0013449B001A467B68A6
:102EE00013449B881A46FEF7F7FD0346BB6020E0BB
:102EF000FA6813465B0013449B001A467B68134430
:102F00001878FA6813465B0013449B001A467B68E6
:102F100013449968FA6813465B0013449B001A46F1
:102F20007B6813449B88DBB21A46FEF777FE0346A4
:102F3000BB60FB680133FB60BB68002B03D1FA6800
:102F40003B689A42A6D1BB68002B01D0BB6800E069
:102F5000FB6818461037BD4680BD80B58CB000AF09
:102F60000346B9607A60FB734FF0FF33FB620023C6
:102F7000BB6200237B82FB7B3B740223BB82BB686A
:102F8000BB610123FB83FB7B3B777B689BB2023BEE
:102F90009BB23B84BB6802337B620CE007F11003F9
:102FA00002211846FFF76AFFF862FB6A022B06D07F
:102FB000BB6A0133BB62BB6A042BEFDD00E000BFDC
:102FC000BB6A042B0FDDBB681B781B029BB21A4641
:102FD000BB6801331B7842EA03017B689A1EFB6AD7
:102FE00003485CF021FFFB6A18463037BD4680BDC0
:102FF0004495060880B58AB000AF0346B9607A6090
:10300000FB734FF0FF337B6200233B620023FB82A4
:10301000FB7B3B757B689BB23B83BB68FB610CE031
:1030200007F1140301211846FFF728FF78627B6A35
:10303000012B06D03B6A01333B623B6A042BEFDD78
:1030400000E000BF3B6A042B0FDDBB681B781B024E
:103050009BB21A46BB6801331B7842EA03017B68C6
:103060009A1E7B6A03485CF0DFFE7B6A18462837AD
:10307000BD4680BD9495060880B58EB000AFBA609D
:103080007B600346FB730B46BB8107F124030022E0
:103090001A605A609A60DA6007F1140300221A601D
:1030A0005A609A60DA60002387F8373046E007F10B
:1030B00024031022AA2118465DF000F8BB891B0AE0
:1030C0009BB2DBB287F82430BB89DBB287F82530AE
:1030D0007B689A1C07F12401FB7B1846FFF73DFF34
:1030E00007F114031022AB2118465CF0E7FFBB89FF
:1030F0001B0A9BB2DBB23B75BB89DBB27B757B687D
:103100009A1C07F11401FB7B1846FFF726FF7B682A
:1031100002331A4607F1140107F1240318465CF044
:103120009FFF0346002B09D107F1140302337A688D
:103130001946B8685BF052FE01230DE097F837306E
:103140005A1C87F83720022BB1D9BB897A681946F7
:1031500003485CF069FE002318463837BD4680BD41
:10316000E895060880B500AFFEF7B4FB00BF80BD50
:1031700080B500AFFEF778FB00BF80BD80B485B09E
:1031800000AFF860B9607A603B6000BF1437BD469D
:103190005DF8047B704780B483B000AF786000BFF7
:1031A0000C37BD465DF8047B704780B59EB000AF1C
:1031B0009F4A07F154031268114619800233120C1A
:1031C0001A7044F68163BB6207F12C0328220021A8
:1031D00018465CF073FF002387F87230002387F8ED
:1031E0007130BA2387F870300023FB660023BB667A
:1031F00000237B6600233B66002387F85F300023B3
:103200007B674FF0FF33BB6507F1280197F87030FB
:103210000C221846FFF7A1FEB865BB6D002B04DA3F
:10322000B96D84485CF000FEFFE097F82A3087F81B
:10323000713097F87130002B00F0F68097F97130FB
:10324000002B80F2DE8097F8713003F00F0387F8CF
:10325000723097F87230052B00F2D58097F87230F3
:10326000012B21D945F681033B603B1D242200211F
:1032700018465CF023FF97F87230013BDB009A1C84
:10328000394697F870301846FFF767FEB86597F82B
:103290007230013BDB001A463B46991C07F12803BC
:1032A0000C3318465BF09AFD97F872309AB2624B75
:1032B0001B889A4240D200237B6737E0002387F8BF
:1032C000733028E097F87330DB00033307F12802EE
:1032D0001344FB66FB6E1B7803F00F0387F85F3027
:1032E000564A7B6F13441B7897F85F209A4219D097
:1032F00097F8732097F87230013B9A4206DB4F4AE9
:103300007B6F13441B781846FFF745FF97F873301F
:10331000013387F8733097F8732097F872309A4228
:10332000D0D300E000BF7B6F01337B67424B1B882B
:103330001A467B6F9342C1DB97F87230002B43D063
:1033400000237B673AE07B6FDB00033307F1280241
:103350001344FB66FB6E1B7803F00F0387F85F30A6
:10336000364A7B6F134497F85F201A70FB6E013367
:103370001B781A46FB6E02331B781B021343BB6695
:10338000FB6E03331B781A46FB6E04331B781B025B
:1033900013437B66FB6E05331B781A46FB6E0633C0
:1033A0001B781B0213433B6697F85F003B6E7A6EF7
:1033B000B96EFFF7E3FE7B6F01337B6797F87230DE
:1033C0007A6F9A42BFDB16E01B4B1B88002B12D092
:1033D00000237B6709E0194A7B6F13441B7818466A
:1033E000FFF7D9FE7B6F01337B67134B1B881A46AF
:1033F0007B6F9342EFDB97F872309AB20E4B1A80D4
:1034000002E000BF00E000BF07F1540197F8703000
:1034100003221846FFF7EEFDB865BB6D002B04DAFA
:1034200007485CF07BFD00E000BF7837BD4680BDFB
:10343000849606082C9606080C0E0020100E00201C
:103440005C96060880B500AFFEF7D6FA0023184652
:1034500080BD80B584B000AF0346FB71FF23FB73D2
:103460000023BB73164A07F108031268114619803E
:103470000233120C1A7012E007F1080303221946F6
:10348000BA20FFF7B7FD0346FB7397F90F30002B07
:1034900005DD0C485CF042FD97F90F300CE097F920
:1034A0000E30DAB20132D2B2BA73042BE4DD064830
:1034B0005CF034FD97F90F3018461037BD4680BDDB
:1034C000D496060888960608B096060880B582B09D
:1034D00000AF0023FB71FF23BB710FE000F0F6F992
:1034E0000346BB7197F90630002B05DD0A485CF0F6
:1034F00015FD97F906300BE0FFF7A4FFFB795A1C86
:10350000FA71092BEAD905485CF008FD97F90630F5
:1035100018460837BD4680BDD8960608FC960608B2
:1035200080B588B000AF3B1D00221A605A601A8136
:103530000023FB61444B1B781946444A0B465B0051
:103540000B445B0013441B887B833F4B1B7819465D
:103550003E4A0B465B000B445B00134402331B885E
:103560003B830023FB75384B1B781946374A0B46C3
:103570005B000B445B00134404331B8801331B12B4
:10358000DBB23B71304B1B781946304A0B465B006F
:103590000B445B00134404331B88DBB20133DBB202
:1035A0007B713B1D0A221946BA20FFF7D6FCF86151
:1035B000FB69002B01DA002342E0FB791B029BB27E
:1035C000BA7913447B837B7A1B029BB23A7A134409
:1035D0003B833B1D3B611C4B1B7819461B4A0B462A
:1035E0005B000B445B00134404331B8806331B123F
:1035F000DBB23B71144B1B781946144A0B465B0037
:103600000B445B00134404331B88DBB20633DBB28C
:103610007B713B1D03221946BA20FFF79EFCF8611F
:10362000FB69002B01DA00230AE0BB7903F00303F6
:10363000FB75798B3A8BFB7D05485CF0F5FB01232C
:1036400018462037BD4680BDFB0000202C9506089B
:103650002897060880B586B000AF4FF0FF337B6136
:1036600000233B610023FB810023BB600023FB712F
:10367000FEF726FA00F02AF903467B617B69002BEE
:1036800004DA08485CF04AFC7B6906E000F00CF8BC
:10369000FEF720F9FFF744FF002318461837BD4610
:1036A00080BD00BF64970608B0B588B004AF4FF086
:1036B000FF33FB6044F281037B600023BB603B1D52
:1036C00008221946BA20FFF748FCF860FB68002B77
:1036D00004DA77485CF022FCFB68E5E03B7A312BAA
:1036E00031D1BB79392B1BD1FB79312B18D13B7AE6
:1036F000312B15D1BB791946FB7918463B7A1C460C
:10370000FB7ABA7A019200932346024669485CF03C
:103710008BFB694B01221A70684B01221A70C2E0C0
:10372000BB791846FB791C463B7A1D467B7AFA7AB0
:10373000B97A0291019200932B46224601466048D5
:103740005CF072FBAFE03B7A352B37D1BB79392B7C
:1037500021D1FB79312B1ED13B7A352B1BD17B7AC2
:10376000372B18D1BB791846FB791C463B7A1D468E
:103770007B7AFA7AB97A0291019200932B4622461B
:10378000014650485CF050FB4B4B00221A704B4BEB
:1037900000221A7087E0BB791846FB791C463B7AF9
:1037A0001D467B7AFA7AB97A0291019200932B46F0
:1037B0002246014642485CF037FB74E03B7A382BE6
:1037C00037D1BB79352B21D1FB79362B1ED13B7AF2
:1037D000382B1BD17B7A382B18D1BB791846FB7953
:1037E0001C463B7A1D467B7AFA7AB97A029101929D
:1037F00000932B462246014633485CF015FB2E4BC6
:1038000002221A702D4B02221A704CE0BB79184626
:10381000FB791C463B7A1D467B7AFA7AB97A02918B
:10382000019200932B462246014625485CF0FCFAA3
:1038300039E03B7A372B24D1BB791846FB791C46FB
:103840003B7A1D467B7AFA7AB97A0291019200930B
:103850002B46224601461B485CF0E6FABB79392B21
:103860000BD1FB79312B08D13B7A372B05D17B7AF1
:10387000532B02D1104B03221A70104B00221A70E6
:1038800011E0BB791846FB791C463B7A1D467B7AD2
:10389000FA7AB97A0291019200932B4622460146A8
:1038A00007485CF0C1FAFB6818461037BD46B0BD4A
:1038B00090970608B8970608FB0000200B0E002022
:1038C000E8970608209806085098060880B582B048
:1038D00000AF3B4600210A461A800A469A70204BE8
:1038E0001B7819461F4A0B465B000B445B001344D0
:1038F00004331B881B0A9BB2DBB23B70184B1B784E
:103900001946184A0B465B000B445B001344043312
:103910001B88DBB27B700023FB71FF23BB7113E0BC
:103920003B4603221946BA20FFF717FB0346BB713B
:1039300097F90630002B02DD97F906300BE0FB7992
:10394000194609485CF070FAFB795A1CFA71042B8D
:10395000E6D997F9063018460837BD4680BD00BF46
:10396000FB0000202C9506088098060880B500AF63
:10397000FFF71BFC00BF80BD80B58AB000AF786048
:1039800039604E4A07F11403126811461980023358
:10399000120C1A7044F68163BB6007F10C0300221D
:1039A0001A605A60002387F82730002387F82630F2
:1039B000BA2387F8253000233B620023FB614FF0D8
:1039C000FF33BB6107F1080197F825300C22184638
:1039D000FFF7C3FAB861BB69002B05DAB96938484B
:1039E0005CF022FA002364E0BB7A87F8263097F86F
:1039F0002630002B01D100235BE097F92630002B05
:103A00003DDA97F8263003F00F0387F8273097F850
:103A10002730052B35D897F82730002B33D03B7B48
:103A20001A467B7B1B0213433B62BB7B1A46FB7B24
:103A30001B021343FB61234B1B781946224A0B469A
:103A40005B000B445B0013441B881A463B6A93429D
:103A50001BDA1C4B1B7819461B4A0B465B000B44B8
:103A60005B00134402331B881A46FB6993420CDA4D
:103A70007B683A6A1A603B68FA691A6006E000BF20
:103A800004E000BF02E000BF00E000BF07F1140146
:103A900097F8253003221846FFF7ACFAB861BB69E6
:103AA000002B04DA09485CF039FA002301E097F8AA
:103AB000273018462837BD4680BD00BF84960608CB
:103AC0002C960608FB0000202C9506085C9606083C
:103AD00080B483B000AF7860064A7B6843F0BF6370
:103AE00043F40033D36000BF0C37BD465DF8047B60
:103AF000704700BF00ED00E080B485B000AF786093
:103B00000023FB730023BB730F237B737B68DB787D
:103B1000002B39D0274BDB68DB431B0ADBB203F0F9
:103B20000703FB73FB7BC3F10403BB737A7BFB7B53
:103B300042FA03F37B737B685B781A46BB7B02FA1D
:103B400003F3FB737B689A787B7B1340DAB2FB7BD1
:103B50001343FB73FB7B1B01FB73174A7B681B78CA
:103B60001344FA7B83F800237B681B7803F01F0360
:103B700011497A6812785209D2B21046012202FA2B
:103B800003F341F820300FE07B681B7803F01F033C
:103B900009497A6812785209D2B2104601229A4035
:103BA00000F1200341F8232000BF1437BD465DF823
:103BB000047B704700ED00E000E100E080B483B0DA
:103BC00000AF786039603B6823F0604323F07F03E7
:103BD00004497A6813438B6000BF0C37BD465DF81B
:103BE000047B704700ED00E080B483B000AF034673
:103BF0000A46FB711346BB71BB79002B06D00A4BFA
:103C00001A69FB79084913430B6106E0064B1A69F0
:103C1000FB79DB43044913400B6100BF0C37BD4601
:103C20005DF8047B704700BF00ED00E080B483B016
:103C300000AF78607B68042B06D1094B1B68084AEB
:103C400043F00403136005E0054B1B68044A23F0AE
:103C50000403136000BF0C37BD465DF8047B70475A
:103C600010E000E080B483B000AF78607B681B6830
:103C700023F001027B681A607B6800221A607B686F
:103C800000225A607B6800229A607B680022DA601A
:103C90007B6800221A617B6821225A617B68464A50
:103CA000934203D1454B3D229A607EE07B68444AB3
:103CB000934204D1414B4FF474629A6075E07B6883
:103CC000404A934204D13D4B4FF474129A606CE029
:103CD0007B683D4A934204D1384B4FF074629A603E
:103CE00063E07B68394A934203D1344B384ADA6047
:103CF0005BE07B68374A934203D1304B364ADA6047
:103D000053E07B68354A934203D12C4B344ADA6046
:103D10004BE07B68334A934204D1284B4FF03D522D
:103D2000DA6042E07B68304A934203D12F4B3D2258
:103D30009A603AE07B682E4A934204D12B4B4FF4B1
:103D400074629A6031E07B682A4A934204D1274B1F
:103D50004FF474129A6028E07B68274A934204D19A
:103D6000224B4FF074629A601FE07B68234A9342B3
:103D700003D11E4B164ADA6017E07B68204A934253
:103D800003D11A4B144ADA600FE07B681D4A934254
:103D900003D1164B124ADA6007E07B681A4A934255
:103DA00003D1124B4FF03D52DA6000BF0C37BD46D5
:103DB0005DF8047B704700BF106002400060024065
:103DC000286002404060024058600240706002403B
:103DD0003D00002088600240400F0020A0600240AB
:103DE00000003D20B86002401064024000640240C0
:103DF00028640240406402405864024070640240FB
:103E000088640240A0640240B864024080B485B077
:103E100000AF786039600023FB607B681B68FB6043
:103E2000FA68254B1340FB603B681A683B68DB6807
:103E30001A433B685B691A433B689B691A433B68BA
:103E4000DB691A433B681B6A1A433B685B6A1A4387
:103E50003B689B6A1A433B685B6B1A433B689B6BEE
:103E60001343FA681343FB607B68FA681A607B6847
:103E70005B69FB60FB6823F00703FB603B68DA6A61
:103E80003B681B6B1343FA681343FB607B68FA685B
:103E90005A613B681A697B685A603B685A687B685C
:103EA0009A603B689A687B68DA6000BF1437BD4649
:103EB0005DF8047B704700BF3F801CF080B483B086
:103EC00000AF78607B6800221A607B6800225A602D
:103ED0007B6800229A607B680022DA607B6800229F
:103EE0001A617B6800225A617B6800229A617B68B4
:103EF0000022DA617B6800221A627B6800225A6223
:103F00007B6800229A627B680022DA627B6800226A
:103F10001A637B6800225A637B6800229A6300BFA1
:103F20000C37BD465DF8047B704780B483B000AFAA
:103F300078600B46FB70FB78002B06D07B681B6813
:103F400043F001027B681A6005E07B681B6823F080
:103F500001027B681A6000BF0C37BD465DF8047B28
:103F6000704780B483B000AF786039603B68002B45
:103F700006D07B681B6843F400427B681A6005E04A
:103F80007B681B6823F400427B681A6000BF0C3713
:103F9000BD465DF8047B704780B483B000AF7860A5
:103FA00039603B68002B06D07B681B6843F0200219
:103FB0007B681A6005E07B681B6823F020027B6841
:103FC0001A6000BF0C37BD465DF8047B704780B4B3
:103FD00083B000AF78600B467B807A887B685A603C
:103FE00000BF0C37BD465DF8047B704780B483B0DA
:103FF00000AF78607B685B689BB218460C37BD46A3
:104000005DF8047B704780B485B000AFF860B9609C
:104010007A607B68002B06D0FB681B6843F40022A3
:10402000FB681A6005E0FB681B6823F40022FB684C
:104030001A60FB68BA681A6100BF1437BD465DF8A4
:10404000047B704780B483B000AF78600B46FB7090
:10405000FB78002B06D07B681B6843F480227B68CA
:104060001A6005E07B681B6823F480227B681A6075
:1040700000BF0C37BD465DF8047B704780B485B047
:1040800000AFF860B9607A607B68002B03D0FB68F2
:10409000BA681A6102E0FB68BA68DA6000BF1437D8
:1040A000BD465DF8047B704780B485B000AF786092
:1040B0000023FB607B681B6803F40023002B02D005
:1040C0000123FB6001E00023FB60FB681846143706
:1040D000BD465DF8047B704780B485B000AF786062
:1040E0000023FB737B681B6803F00103002B02D0E5
:1040F0000123FB7301E00023FB73FB7B184614379D
:10410000BD465DF8047B704780B485B000AF786031
:104110000023FB607B685B6903F03803FB60FB688E
:1041200018461437BD465DF8047B704780B487B0ED
:1041300000AF786039600023FB750023FB607B686B
:10414000154A934202D8154B3B6101E0144B3B6189
:104150003B6803F00053002B03D03B695B68FB60B6
:1041600002E03B691B68FB60FB6823F0F02323F04F
:104170008213FB60FA683B681340002B02D00123D6
:10418000FB7501E00023FB75FB7D18461C37BD461F
:104190005DF8047B704700BF0F640240006002407E
:1041A0000064024080B485B000AF786039607B68FD
:1041B000104A934202D8104BFB6001E00F4BFB60AA
:1041C0003B6803F00053002B07D03B6823F0F0233B
:1041D00023F08213FA68D36006E03B6823F0F023F3
:1041E00023F08213FA68936000BF1437BD465DF870
:1041F000047B70470F64024000600240006402408C
:1042000080B485B000AFF860B9601346FB71BB683D
:1042100003F08003002B0FD0FB79002B06D0FB6846
:104220005B6943F08002FB685A6105E0FB685B69EB
:1042300023F08002FB685A61BB68802B14D0FB79A5
:10424000002B08D0FB681A68BB6803F01E031A43F2
:10425000FB681A6008E0FB681A68BB6803F01E037D
:10426000DB431A40FB681A6000BF1437BD465DF897
:10427000047B704780B487B000AF7860396000235A
:10428000FB750023FB600023BB607B68224A9342DE
:1042900002D8224B3B6101E0214B3B613B6823F09C
:1042A000F02323F0C313002B0AD03B68DB0A03F092
:1042B0001E03FB607B681B68FA681340BB6004E068
:1042C0007B685B6903F08003BB603B6803F00053CD
:1042D000002B03D03B695B68FB6002E03B691B6815
:1042E000FB60FB6823F0F02323F08213FB60FA6885
:1042F0003B681340002B05D0BB68002B02D0012384
:10430000FB7501E00023FB75FB7D18461C37BD469D
:104310005DF8047B704700BF0F64024000600240FC
:104320000064024080B485B000AF786039607B687B
:10433000104A934202D8104BFB6001E00F4BFB6028
:104340003B6803F00053002B07D03B6823F0F023B9
:1043500023F08213FA68D36006E03B6823F0F02371
:1043600023F08213FA68936000BF1437BD465DF8EE
:10437000047B70470F64024000600240006402400A
:1043800080B500AF01214FF4000003F0EFFC0021E5
:104390004FF4000003F0EAFC00BF80BD80B487B09A
:1043A00000AF786000237B6100233B610023FB604A
:1043B0000023BB60504B1B684F4A23F0031323F4C8
:1043C000F85313604C4B1A687B681B684A491343C7
:1043D0000B60494B5B6B484A23F007035363464B22
:1043E0005A6B7B685B68444913434B637B685B682B
:1043F000002B0CD17B68DB681B027B617B681B692F
:104400001B043B617B685B691B06FB603AE07B68D1
:104410005B68012B0AD17B68DB681B027B617B68D0
:104420001B691B043B610023FB602BE07B685B681E
:10443000022B0AD17B68DB685B017B617B681B69AF
:10444000DB023B610023FB601CE07B685B68032BA5
:104450000CD17B68DB685B017B617B681B699B021D
:104460003B617B685B69DB03FB600BE07B68DB68BF
:104470001B017B617B681B691B023B617B685B697D
:104480001B03FB601C4B9A6B79693B6919437B6882
:104490009B681943FB680B43174913438B63164A08
:1044A0007B689B69D363144B1B6C134A23F47F53C3
:1044B00023F03F031364104B1A6C7B68DB690E49D1
:1044C00013430B647B685B6A1B04BB600A4B5B6C29
:1044D000094A03F040435364074B5A6C7B68196ADE
:1044E000BB680B43044913434B6400BF1C37BD46F4
:1044F0005DF8047B704700BF00B0024080B483B019
:1045000000AF78607B6800221A607B6800225A60E6
:104510007B680022DA607B6800229A607B68002258
:104520001A617B6800225A617B6800229A617B686D
:104530000022DA617B6800221A627B6800225A62DC
:1045400000BF0C37BD465DF8047B704780B400AFF8
:10455000054B1B68044A43F00103136000BFBD46CE
:104560005DF8047B704700BF00B0024080B400AF2C
:10457000054B1B68044A43F00403136000BFBD46AB
:104580005DF8047B704700BF00B0024080B483B088
:1045900000AF0346FB71FB79002B06D0094B1B686B
:1045A000084A43F00203136005E0064B1B68054A06
:1045B00023F00203136000BF0C37BD465DF8047B97
:1045C000704700BF00B0024080B489B000AF78608F
:1045D0000023FB610023BB6100237B6100233B615F
:1045E0000023FB600023BB602D4A7B681B68D360FF
:1045F0002B4B1B692A4A23F47F5323F03F0313619B
:10460000274B1A697B685B68254913430B61244B70
:10461000DA692349234B1340CB617B68DB681B01BC
:10462000FB617B681B691B02BB617B685B691B04C8
:104630007B617B689B691B063B61194BDA697B6870
:104640009968FB691943BB6919437B6919433B6945
:104650000B4313491343CB61114B1B6A104A03F000
:104660007F4313627B681B6A1B02FB607B685B6A8B
:104670001B04BB600A4B1A6A7B68D969FB68194343
:10468000BB680B43064913430B62054A7B689B6A70
:10469000D36200BF2437BD465DF8047B704700BF7E
:1046A00000B00240C000FC0080B483B000AF78606E
:1046B0007B6800221A607B6800225A607B680022B7
:1046C0009A607B680022DA607B6800221A617B684E
:1046D00000225A617B6800229A617B680022DA61BD
:1046E0007B6800221A627B6800225A627B68002283
:1046F0009A6200BF0C37BD465DF8047B704780B4FA
:1047000089B000AF78600023FB610023BB61002308
:104710007B6100233B610023FB600023BB602D4ACB
:104720007B681B6853612B4B9B692A4A23F47F5398
:1047300023F03F039361274B9A697B685B682549A7
:1047400013438B61234B5A6A2249234B13404B621C
:104750007B68DB681B01FB617B681B691B02BB611B
:104760007B685B691B047B617B689B691B063B6103
:10477000184B5A6A7B689968FB691943BB691943EE
:104780007B6919433B690B43124913434B62114B3D
:104790009B6A104A03F07F4393627B681B6A1B028B
:1047A000FB607B685B6A1B04BB600A4B9A6A7B6890
:1047B000D969FB681943BB680B43064913438B62F5
:1047C000044A7B689B6A136300BF2437BD465DF8CB
:1047D000047B704700B00240C000FC0080B483B08E
:1047E00000AF78607B6800221A607B6800225A6004
:1047F0007B6800229A607B680022DA607B68002276
:104800001A617B6800225A617B6800229A617B688A
:104810000022DA617B6800221A627B6800225A62F9
:104820007B6800229A6200BF0C37BD465DF8047BAE
:10483000704780B483B000AF0346FB71FB79002B57
:1048400006D0094BDB69084A43F02003D36105E039
:10485000054BDB69044A23F02003D36100BF0C370A
:10486000BD465DF8047B704700B0024080B483B061
:1048700000AF0346FB71FB79002B06D0094B5B6A46
:10488000084A43F02003536205E0064B5B6A054A81
:1048900023F02003536200BF0C37BD465DF8047B54
:1048A000704700BF00B0024080B485B000AF7860B0
:1048B0000B46FB70FB78002B13D0104BDB6C0F4AC0
:1048C00023F47F4323F00103D3647B681B02FB6066
:1048D0000A4BDA6CFB681343084A43F00103D364C4
:1048E00005E0064BDB6C054A23F00103D36400BFEF
:1048F0001437BD465DF8047B704700BF00B002402E
:1049000080B483B000AF7860044A7B68936400BFD2
:104910000C37BD465DF8047B704700BF00B0024015
:1049200080B483B000AF78600B46FB70FB78002B3F
:1049300006D00A4B1A6809497B6813430B6006E0EE
:10494000064B1A687B68DB43044913400B6000BFC9
:104950000C37BD465DF8047B704700BF00B00240D5
:1049600080B485B000AF78600023FB73084B5A68B1
:104970007B681340002B02D00123FB7301E000236E
:10498000FB73FB7B18461437BD465DF8047B70470C
:1049900000B0024080B483B000AF7860044A7B6806
:1049A000936000BF0C37BD465DF8047B704700BFC5
:1049B00000B0024080B485B000AF78600023FB7384
:1049C0007B681B0ABB60104B5A68BB681340002B06
:1049D00002D00123FB7301E00023FB730A4B1A682A
:1049E0007B681340002B05D0FB7B002B02D00123FA
:1049F000FB7301E00023FB73FB7B18461437BD46B5
:104A00005DF8047B704700BF00B0024080B483B003
:104A100000AF78607B681B0A7B60044A7B68936008
:104A200000BF0C37BD465DF8047B704700B0024004
:104A300080B400AF094B00221A60084B00225A6074
:104A4000064B00229A60054B0022DA60034B044AB1
:104A50005A6100BFBD465DF8047B7047003C0140D1
:104A6000FFFF7F0080B485B000AF78600023FB605B
:104A7000344BFB607B689B79002B4FD0314B1A681D
:104A80007B681B68DB432F4913400B602D4B5A6832
:104A90007B681B68DB432B4913404B607B681B79A9
:104AA0001A46FB681344FB60FB6819687B681A6848
:104AB000FB680A431A60234B9A687B681B68DB43D8
:104AC000204913408B601F4BDA687B681B68DB430F
:104AD0001C491340CB607B685B79102B0ED1194BBE
:104AE0009A687B681B68174913438B60154BDA681B
:104AF0007B681B6813491343CB601DE0114BFB60BF
:104B00007B685B791A46FB681344FB60FB68196895
:104B10007B681A68FB680A431A600DE07B681B79A2
:104B20001A46FB681344FB60FB6819687B681B68C6
:104B3000DA43FB680A401A6000BF1437BD465DF8CF
:104B4000047B7047003C014080B483B000AF7860C4
:104B50007B6800221A607B6800221A717B680C2235
:104B60005A717B6800229A7100BF0C37BD465DF810
:104B7000047B704780B483B000AF7860054B1A693E
:104B800004497B6813430B6100BF0C37BD465DF8D9
:104B9000047B7047003C014080B485B000AF786072
:104BA0000023FB73084B5A697B681340002B02D02B
:104BB0000123FB7301E00023FB73FB7B18461437D2
:104BC000BD465DF8047B7047003C014080B483B073
:104BD00000AF7860044A7B68536100BF0C37BD4664
:104BE0005DF8047B704700BF003C014080B485B095
:104BF00000AF78600023FB73084B5A697B68134051
:104C0000002B02D00123FB7301E00023FB73FB7B2D
:104C100018461437BD465DF8047B7047003C0140E0
:104C200080B483B000AF7860044A7B68536100BFF2
:104C30000C37BD465DF8047B704700BF003C014067
:104C400080B483B000AF78607B68002B07D14FF051
:104C500020427B6843F2DB0142F8231006E04FF06C
:104C600020427B6843F2D20142F823104FF02042E9
:104C70007B6801336FF0704142F82310054A7B686E
:104C80006FF0704142F8231000BF0C37BD465DF84D
:104C9000047B7047040100A080B485B000AF786049
:104CA0000023FB600023BB604FF020427B681B6841
:104CB00052F82330BB60BA68654B1340BB607B6819
:104CC0005A687B689B681A437B68DB681A437B6879
:104CD0001B691A437B685B691A437B689B691A43AB
:104CE0007B68DB691A437B681B6A1A437B685B6AD3
:104CF0001A437B689B6A1A437B68DB6A1A437B68AA
:104D00001B6B1A437B685B6B1343BA681343BB602E
:104D10004FF020417B681B68BA6841F823207B680C
:104D20009B68082B0DD14FF020427B681B6852F81E
:104D300023204FF020417B681B6842F0400241F87D
:104D400023207B685B6BB3F5801F24D17B681B68D5
:104D5000002B20D04FF020435B6823F47003FB60EE
:104D60004FF020431A687B685B6B4FF02041134380
:104D70000B604FF020431B684FF0204243F48073D8
:104D800013607B689B6B1B69013B1A054FF0204148
:104D9000FB6813434B607B689B6B1A687B689B6B5B
:104DA0005B681B011A437B689B6B9B681B021A4361
:104DB0007B689B6BDB681B041A437B689B6B1B69DE
:104DC0001B051A437B689B6B5B691B0642EA030168
:104DD0007B689B6B9A694FF020407B681B680133AE
:104DE0000A4340F823207B689B6AB3F5804F21D1AA
:104DF0007B68DB6B1A687B68DB6B5B681B011A43A3
:104E00007B68DB6B9B681B021A437B68DB6B1B694F
:104E10001B051A437B68DB6B5B691B0642EA0301D7
:104E20007B68DB6B9A690B487B681B680A4340F818
:104E3000232006E0074A7B681B686FF0704142F848
:104E4000231000BF1437BD465DF8047B704700BFD8
:104E50008000E7FF040100A080B483B000AF786059
:104E60007B6800221A607B6802225A607B680022FD
:104E70009A607B681022DA607B6800221A617B6886
:104E80000022DA627B6800225A617B6800229A6104
:104E90007B680022DA617B684FF480521A627B687B
:104EA0004FF400525A627B6800229A627B680022AB
:104EB0001A637B6800225A637B68054A9A637B68A1
:104EC000034ADA6300BF0C37BD465DF8047B7047C8
:104ED000B098060880B483B000AF78600B46FB70D2
:104EE000FB78002B0CD04FF020427B6852F8233027
:104EF0004FF0204143F001027B6841F823200BE092
:104F00004FF020427B6852F823204FF02041054BA0
:104F100013407A6841F8223000BF0C37BD465DF877
:104F2000047B7047FEFF0F0080B483B000AF786051
:104F30007B68102B0ED1114B18221A600F4B4022A8
:104F40005A600E4B4FF0FC329A600C4B4FF0FC3223
:104F5000DA600DE00A4B18221A60094B40225A60B1
:104F6000074B4FF0FC329A60054B4FF0FC32DA6091
:104F700000BF0C37BD465DF8047B7047600000A0A1
:104F8000800000A080B487B000AF786000237B6110
:104F900000233B610023FB607B681B68102B03D15F
:104FA000414B1B687B6102E0404B1B687B617A6967
:104FB0003F4B13407B617B685A687B689B681A4350
:104FC0007B68DB681A437B681B691A437B685B69F3
:104FD0005B021A437B689B695B031A437B6913433B
:104FE00043F008037B617B681B68102B03D12E4BB9
:104FF0009B683B6102E02D4B9B683B6100233B615A
:105000007B68DB691A687B68DB695B681B021A4393
:105010007B68DB699B681B041A437B68DB69DB6880
:105020001B0613433A6913433B617B681B68102BD3
:1050300003D11D4BDB68FB6002E01C4BDB68FB60AF
:105040000023FB607B681B6A1A687B681B6A5B68CD
:105050001B021A437B681B6A9B681B041A437B680C
:105060001B6ADB681B061343FA681343FB607B680B
:105070001B68102B09D10C4A7B6913600A4A3B69F3
:105080009360094AFB68D36008E0084A7B691360B3
:10509000064A3B699360054AFB68D36000BF1C3732
:1050A000BD465DF8047B7047600000A0800000A052
:1050B0008101F0FF80B483B000AF78607B6810227C
:1050C0001A607B6800225A607B6810229A607B68B5
:1050D0000022DA607B6800221A617B6800225A6134
:1050E0007B6800229A617B68DB69FC221A607B681E
:1050F000DB69FC225A607B68DB69FC229A607B6872
:10510000DB69FC22DA607B681B6AFC221A607B6820
:105110001B6AFC225A607B681B6AFC229A607B68CF
:105120001B6AFC22DA6000BF0C37BD465DF8047BC9
:10513000704780B483B000AF78600B46FB70FB789B
:10514000002B10D07B68102B06D1124B1B68114A24
:1051500043F00403136016E00F4B1B680E4A43F044
:10516000040313600FE07B68102B06D1094B1A680B
:1051700008490A4B13400B6005E0074B1A680649C3
:10518000064B13400B6000BF0C37BD465DF8047B37
:10519000704700BF600000A0800000A0FBFF0F0070
:1051A00080B483B000AF78600B46FB70FB78002BB7
:1051B00010D07B68102B06D1114B1B68104A43F0AE
:1051C0004003136016E00F4B1B680E4A43F0400388
:1051D00013600FE07B68102B06D1094B1A68084951
:1051E000094B13400B6005E0064B1A680549064B56
:1051F00013400B6000BF0C37BD465DF8047B704761
:10520000600000A0800000A0BFFF0F0080B485B048
:1052100000AF78600023FB607B68102B03D1074B45
:105220005B69FB6002E0064B5B69FB60FB6818464C
:105230001437BD465DF8047B704700BF600000A0D6
:10524000800000A080B400AF0B4B18221A600A4BFC
:1052500000225A60084B4FF0FC329A60064B4FF028
:10526000FC32DA60044B4FF0FC321A6100BFBD46DD
:105270005DF8047B704700BFA00000A080B487B039
:1052800000AF786000237B6100233B610023FB605B
:105290000023BB603B4B1B687B617B6923F4FF33BE
:1052A00023F032037B617B681A687B685B685B0272
:1052B0001A437B689B685B031A437B69134343F083
:1052C00010037B612F4A7B6913602E4B9B683B6107
:1052D00000233B617B68DB681A687B68DB685B687E
:1052E0001B021A437B68DB689B681B041A437B68BC
:1052F000DB68DB681B0613433A6913433B61214AB1
:105300003B6993601F4BDB68FB600023FB607B689D
:105310001B691A687B681B695B681B021A437B6800
:105320001B699B681B041A437B681B69DB681B06AF
:105330001343FA681343FB60124AFB68D360114BB6
:105340001B69BB600023BB607B685B691A687B6874
:105350005B695B681B021A437B685B699B681B0483
:105360001A437B685B69DB681B061343BA68134307
:10537000BB60044ABB68136100BF1C37BD465DF8C3
:10538000047B7047A00000A080B483B000AF7860B9
:105390007B6800221A607B6800225A607B680022CA
:1053A0009A607B68DB68FC221A607B68DB68FC2201
:1053B0005A607B68DB68FC229A607B68DB68FC22B1
:1053C000DA607B681B69FC221A607B681B69FC221F
:1053D0005A607B681B69FC229A607B681B69FC220F
:1053E000DA607B685B69FC221A607B685B69FC227F
:1053F0005A607B685B69FC229A607B685B69FC226F
:10540000DA6000BF0C37BD465DF8047B704780B49E
:1054100083B000AF0346FB71FB79002B06D0094B2C
:105420001B68084A43F00403136005E0054B1A6843
:105430000449054B13400B6000BF0C37BD465DF8B7
:10544000047B7047A00000A0FBFF0F0080B483B076
:1054500000AF78600D4A7B684FF4347142F8231036
:105460000A4A7B6802336FF0704142F82310074B01
:1054700000221A61054B00225A61044B00229A61F6
:1054800000BF0C37BD465DF8047B7047400100A0AB
:1054900080B487B000AF786000237B6100233B615C
:1054A0000023FB600023BB606D4A7B681B6852F8D9
:1054B00023307B617B6923F4FF4323F07F037B610F
:1054C0007B685A687B689B681A437B68DB681A4371
:1054D0007B681B691A437B685B691A437B689B691D
:1054E0001A437B68DB691A437B681B6A1A437B6833
:1054F0005B6A13437A6913437B617B681B68002BEB
:1055000006D157497B681B687A6941F823201CE063
:10551000534B1B68FB60FB6823F4FF4323F07F03BE
:10552000FB607B68DA697B681B6A1A437B685B6A8D
:105530001343FA681343FB60494AFB681360484908
:105540007B681B687A6941F823207B681B68002B05
:105550003DD1434A7B681B68023352F823303B61DC
:105560003B6903F070433B617B689B6A1B685A1E72
:105570007B689B6A5B68013B1B011A437B689B6AE3
:105580009B68013B1B021A437B689B6ADB68013BFB
:105590001B031A437B689B6A1B69013B1B041A436C
:1055A0007B689B6A5B69013B1B051A437B689B6AAE
:1055B0009B69013B1B0613433A6913433B6128492E
:1055C0007B681B6802333A6941F8232042E0244A91
:1055D0007B681B68023352F823303B613B6903F060
:1055E00070433B617B689B6A1B685A1E7B689B6AA1
:1055F0005B68013B1B011A437B689B6A9B68013B0C
:105600001B021A437B689B6A1B69013B1B04134303
:105610003A6913433B61124B9B68BB60BB6803F064
:105620007043BB607B689B6ADB68013B1A037B6845
:105630009B6A5B69013B1B051343BA681343BB605C
:10564000074ABB68936006497B681B6802333A6966
:1056500041F8232000BF1C37BD465DF8047B70472E
:10566000400100A080B483B000AF78607B68002266
:105670001A607B6800225A607B6800229A607B680F
:105680001022DA607B6840221A617B6880225A61AE
:105690007B684FF400729A617B680022DA617B6854
:1056A00000221A627B6800225A627B689B6A102281
:1056B0001A607B689B6A10225A607B689B6A102282
:1056C0009A607B689B6A1022DA607B689B6A102272
:1056D0001A617B689B6A10225A617B689B6A102260
:1056E0009A6100BF0C37BD465DF8047B704780B4FB
:1056F00085B000AF78600023FB607B681A687B6828
:105700005B681A437B689B68013B5B011A437B68BB
:10571000DB685B021343FB60044AFB68136100BF54
:105720001437BD465DF8047B704700BF400100A000
:1057300080B485B000AF78600023FB607B68002BED
:1057400005D1094B9B6903F00603FB6005E0064B9E
:105750009B699B0803F00603FB60FB68184614373F
:10576000BD465DF8047B7047400100A080B483B063
:1057700000AF7860064B5A697B685B0004491343AD
:105780004B6100BF0C37BD465DF8047B704700BF1E
:10579000400100A080B483B000AF7860064B1A6966
:1057A0007B685B01044913430B6100BF0C37BD46A6
:1057B0005DF8047B704700BF400100A080B483B057
:1057C00000AF78600B46FB70FB78002B0AD00E4AC6
:1057D0007B6852F823300C4943F400727B6841F82F
:1057E00023200AE0084A7B6852F82320064947F63E
:1057F000FF5313407A6841F8223000BF0C37BD4692
:105800005DF8047B704700BF400100A080B485B004
:1058100000AFF860B9601346FB71FB79002B26D00E
:10582000FB68102B06D12A4B5A682949BB681343E1
:105830004B6046E0FB68B3F5807F06D1254B5A6884
:105840002449BB6813434B603BE0FB68B3F5805FC2
:1058500006D1214B5A682049BB6813434B6030E0A6
:105860001E4B5A691D49BB6813434B6129E0FB6815
:10587000102B07D1164B5A68BB68DB431449134001
:105880004B601EE0FB68B3F5807F07D1114B5A686F
:10589000BB68DB430F4913404B6012E0FB68B3F574
:1058A000805F07D10C4B5A68BB68DB430A49134041
:1058B0004B6006E0094B5A69BB68DB43074913405C
:1058C0004B6100BF1437BD465DF8047B704700BFD5
:1058D000600000A0800000A0A00000A0400100A087
:1058E00080B485B000AF786039600023FB7300237B
:1058F000BB607B68102B03D1144B5B68BB6012E06C
:105900007B68B3F5807F03D1114B5B68BB600AE015
:105910007B68B3F5805F03D10E4B5B68BB6002E030
:105920000D4B9B69BB60BA683B6813403A689A426A
:1059300002D00023FB7301E00123FB73FB7B1846BD
:105940001437BD465DF8047B704700BF600000A0BF
:10595000800000A0A00000A0400100A080B483B09F
:1059600000AF786039607B68102B07D1164B5A68FE
:105970003B68DB43144913404B601EE07B68B3F582
:10598000807F07D1114B5A683B68DB430F491340B6
:105990004B6012E07B68B3F5805F07D10C4B5A680F
:1059A0003B68DB430A4913404B6006E0094B5A69E8
:1059B0003B68DB43074913404B6100BF0C37BD46D2
:1059C0005DF8047B704700BF600000A0800000A06D
:1059D000A00000A0400100A080B489B000AF7860B2
:1059E00039600023FB770023BB6100237B61002328
:1059F0003B610023FB607B68102B03D11F4B5B686E
:105A0000BB6115E07B68B3F5807F03D11C4B5B68FD
:105A1000BB610DE07B68B3F5805F03D1194B5B6818
:105A2000BB6105E0184B5B69BB61174B9B697B61F0
:105A3000BA693B681340FB607B68002B02D07B682F
:105A4000012B04D17B6903F001033B6104E03B6857
:105A5000DB08BA6913403B613B69002B05D0FB684A
:105A6000002B02D00123FB7701E00023FB77FB7FB3
:105A700018462437BD465DF8047B7047600000A0DF
:105A8000800000A0A00000A0400100A080B483B06E
:105A900000AF786039607B68102B08D1174B5A68CB
:105AA0003B68DB08DB43154913404B601FE07B6814
:105AB000B3F5807F08D1124B5A683B68DB08DB43A3
:105AC0000F4913404B6012E07B68B3F5805F08D14B
:105AD0000C4B5A683B68DB08DB430A4913404B60B8
:105AE00005E0094B5B69084A43F00103536100BFBD
